:100000000C942D000C9442050C9442050C9442056E
:100010000C9442050C9442050C9442050C94420544
:100020000C9442050C9442050C9442050C94420534
:100030000C9442050C9442050C9442050C94420524
:100040000C9442050C9442050C9442050C94420514
:100050000C9442050060006A800011241FBECFE5A9
:10006000D8E0DEBFCDBFE4E5F0E040E017C0B591D9
:10007000A59135912591059107FD0CC0959185912C
:10008000EF01F92FE82F05900D92A217B307D9F7CA
:10009000FE0104C01D92A217B307E1F7E935F4078A
:0E00A00031F70E94E4040C945500F894FFCF51
:1000AE0049274D205761746368696E670052454158
:1000BE004C4C59200049204C4F564520594F550065
:1000CE0054484953204953205445525249424C45B5
:1000DE000049205749534820594F55004120484167
:1000EE00505059204C49464500455843454C4C45C7
:0800FE004E5420574F524B00F5
:1001060080916000909161008F3F23E0920709F093
:100116003FC080916200909163008D3C21E0920780
:1001260009F0CBC080916400909165008F3F9340A9
:1001360009F0BAC080916600909167008D3C9140AD
:1001460009F0B2C080916800909169008F3F93409A
:1001560009F0AAC00E943604089580916400909127
:1001660065008D3C914009F0BDC08091660090917C
:1001760067008D3C914009F0B5C080916800909170
:1001860069008F3F934009F0ADC00E944D0308956A
:100196008D3C21E0920709F067C080916200909142
:1001A60063008F3F934009F08CC08091640090916A
:1001B60065008D3C914009F08CC08091660090915D
:1001C60067008D3C914009F084C080916800909151
:1001D6006900892B09F07DC00E94C50208958091AF
:1001E6006600909167008F3F934021F580916800EB
:1001F600909169008D3C9140E9F40E947D03089539
:100206008091640090916500892B09F06BC0809104
:100216006600909167008F3F934009F063C080911C
:100226006800909169008D3C914009F05BC00E9486
:10023600AD0308958091640090916500892B09F0C3
:1002460051C080916600909167008D3C914009F005
:1002560049C080916800909169008F3F934009F0F2
:1002660041C00E9409030895892BE1F5809162003F
:10027600909163008D3C9140A9F580916400909126
:1002860065008F3F934071F58091660090916700FD
:10029600892B41F580916800909169008D3C9140D1
:1002A60009F50E94DD030895809162009091630034
:1002B6008D3C914009F4A4CF08958F3F934091F46B
:1002C6004CCF80916200909163008F3F934051F430
:1002D600B1CF80916400909165008D3C914009F00A
:0602E600A9CF7DCF0895B1
:1002EC00452BC9F181309105A9F01CF4892B39F00B
:1002FC00089582309105C9F0039711F108952AB33E
:10030C0081E090E002C0880F991F6A95E2F7822B7A
:10031C008ABB089527B381E090E002C0880F991F33
:10032C006A95E2F7822B87BB089524B381E090E0B5
:10033C0002C0880F991F6A95E2F7822B84BB08953F
:10034C0021B381E090E002C0880F991F6A95E2F713
:10035C00822B81BB089581309105B1F01CF4892B5F
:10036C0039F0089582309105D9F0039729F1089559
:10037C002AB381E090E002C0880F991F6A95E2F7DA
:10038C00809582238ABB089527B381E090E002C058
:10039C00880F991F6A95E2F78095822387BB089591
:1003AC0024B381E090E002C0880F991F6A95E2F7B0
:1003BC008095822384BB089521B381E090E002C034
:1003CC00880F991F6A95E2F78095822381BB089567
:1003DC00452BC9F181309105A9F01CF4892B39F01A
:1003EC00089582309105C9F0039711F108952BB34C
:1003FC0081E090E002C0880F991F6A95E2F7822B8A
:10040C008BBB089528B381E090E002C0880F991F40
:10041C006A95E2F7822B88BB089525B381E090E0C2
:10042C0002C0880F991F6A95E2F7822B85BB08954D
:10043C0022B381E090E002C0880F991F6A95E2F721
:10044C00822B82BB089581309105B1F01CF4892B6D
:10045C0039F0089582309105D9F0039729F1089568
:10046C002BB381E090E002C0880F991F6A95E2F7E8
:10047C00809582238BBB089528B381E090E002C065
:10048C00880F991F6A95E2F78095822388BB08959F
:10049C0025B381E090E002C0880F991F6A95E2F7BE
:1004AC008095822385BB089522B381E090E002C041
:1004BC00880F991F6A95E2F78095822382BB089575
:1004CC0061E070E083E090E00E940D0441E050E0B8
:1004DC0060E070E082E090E00E94760141E050E044
:1004EC0061E070E082E090E00E94760141E050E033
:1004FC0062E070E082E090E00E94760140E050E023
:10050C0061E070E082E090E00E94EE018FE39CE9F4
:10051C000197F1F700C000000E942C0588E30E94AF
:10052C00BC049FEF20E782E0915020408040E1F72F
:10053C0000C000008CE00E94BC049FEF20E782E02A
:10054C00915020408040E1F700C0000086E00E94FE
:10055C00BC049FEF20E782E0915020408040E1F7FF
:10056C0000C0000082E00E94BC049FEF20E782E004
:0E057C00915020408040E1F700C0000008953B
:10058A00CF93DF93CDB7DEB763970FB6F894DEBF8C
:10059A000FBECDBF2BEB30E040E088E0F901DE0171
:1005AA001196742F0E941F0566E070E080E090E0CB
:1005BA000E940205CE0101960E94F30423EC30E06A
:1005CA0040E08BE0F901DE011996742F0E941F05A5
:1005DA0064E070E081E090E00E940205CE01099695
:1005EA000E94F3042FEF89E698E121508040904061
:1005FA00E1F700C0000063960FB6F894DEBF0FBEA5
:08060A00CDBFDF91CF910895EF
:10061200CF93DF93CDB7DEB768970FB6F894DEBFFE
:100622000FBECDBF2FED30E040E08BE0F901DE01DF
:100632001196742F0E941F0563E070E080E090E045
:100642000E940205CE0101960E94F3042AEE30E0D8
:1006520040E08DE0F901DE011C96742F0E941F0517
:1006620062E070E081E090E00E940205CE010C960B
:100672000E94F3042FEF89E698E1215080409040D8
:10068200E1F700C0000068960FB6F894DEBF0FBE17
:08069200CDBFDF91CF91089567
:10069A00CF93DF93CDB7DEB72D970FB6F894DEBFB1
:1006AA000FBECDBF2EEA30E040E08DE0F901DE0159
:1006BA001196742F0E941F0561E070E081E090E0BE
:1006CA000E940205CE0101960E94F3042FEF89E6EB
:1006DA0098E1215080409040E1F700C000002D963B
:1006EA000FB6F894DEBF0FBECDBFDF91CF9108954C
:1006FA00CF93DF93CDB7DEB72B970FB6F894DEBF53
:10070A000FBECDBF23EC30E040E08BE0F901DE0103
:10071A001196742F0E941F0561E070E081E090E05D
:10072A000E940205CE0101960E94F3042FEF89E68A
:10073A0098E1215080409040E1F700C000002B96DC
:10074A000FB6F894DEBF0FBECDBFDF91CF910895EB
:10075A00CF93DF93CDB7DEB761970FB6F894DEBFBC
:10076A000FBECDBF2EEC30E040E081E1F901DE01A1
:10077A001196742F0E941F0561E070E080E090E0FE
:10078A000E940205CE0101960E94F3042FEF89E62A
:10079A0098E1215080409040E1F700C00000619646
:1007AA000FB6F894DEBF0FBECDBFDF91CF9108958B
:1007BA00CF93DF93CDB7DEB72F970FB6F894DEBF8E
:1007CA000FBECDBF27EF30E040E08FE0F901DE0138
:1007DA001196742F0E941F0561E070E080E090E09E
:1007EA000E940205CE0101960E94F3042FEF89E6CA
:1007FA0098E1215080409040E1F700C000002F9618
:10080A000FB6F894DEBF0FBECDBFDF91CF9108952A
:10081A008130910589F01CF4892B39F008958230D2
:10082A00910589F00397B1F0089581E0672B09F4E7
:10083A0080E081958ABB089581E0672B09F480E006
:10084A00819587BB089581E0672B09F480E0819543
:10085A0084BB089581E0672B09F480E0819581BB10
:02086A000895EF
:10086C00CF93DF9300D000D0CDB7DEB789E59FE4FE
:10087C009A83898385E590E09C838B8365E070E0A7
:10088C0081E090E00E940205CE0101960E94F304E3
:10089C002FEF89E698E1215080409040E1F700C0AD
:1008AC0000000F900F900F900F90DF91CF91089553
:1008BC000F931F93CF93DF9300E610E0C0E0D0E0DE
:1008CC00CE010E943D050E9444050E943605F801A8
:1008DC00819391938F010E942C052196C530D105EF
:0C08EC0079F7DF91CF911F910F910895D3
:1008F80041E050E062E070E082E090E00E94EE01AA
:100908008FE99FE00197F1F700C0000040E050E058
:0E09180062E070E082E090E00E94EE0108953F
:100926008130910561F01CF4892B39F008958230ED
:10093600910539F0039739F008956BBB089568BBAC
:0A094600089565BB089562BB089593
:10095000CF93C82F41E050E060E070E082E090E08B
:100960000E94EE016C2F70E083E090E00E949304FF
:080970000E947C04CF91089560
:10097800CF93C82F40E050E060E070E082E090E064
:100988000E94EE016C2F70E083E090E00E949304D7
:080998000E947C04CF91089538
:1009A00027B1002496958795079496958795079487
:1009B000982F802D822B87B986B1887F86B986B122
:0809C000682B66B9379A08950F
:1009C80067E070E081E090E00E94D0040E94660237
:0E09D8000E9411050E945E040E948300F9CF68
:1009E600CF93DF93EC018881882331F021960E9412
:0E09F600A80489918111FBCFDF91CF91089564
:100A0400009719F0019731F00895862F80680E94AD
:0E0A1400BC040895862F806C0E94BC040895D7
:100A220080E090E00E943D052FEF83EC99E0215099
:0C0A320080409040E1F700C000000895F3
:100A3E00992777FD05C005900D920197E1F708956E
:0A0A4E0001900D920197E1F7089561
:100A580081E00E94BC048FE99FE00197F1F700C094
:040A680000000895ED
:0E0A6C00349BFECF84B125B190E0922B08950B
:0A0A7A0017B897B1892B87B90895CA
:040A84000C940000CE
:040A8800369A0895FD
:00000001FF
